{
  "contractName": "CounterApp",
  "abi": [
    {
      "constant": true,
      "inputs": [],
      "name": "INCREMENT_ROLE",
      "outputs": [
        {
          "name": "",
          "type": "bytes32"
        }
      ],
      "payable": false,
      "stateMutability": "view",
      "type": "function"
    },
    {
      "constant": true,
      "inputs": [],
      "name": "APP_ADDR_NAMESPACE",
      "outputs": [
        {
          "name": "",
          "type": "bytes32"
        }
      ],
      "payable": false,
      "stateMutability": "view",
      "type": "function"
    },
    {
      "constant": true,
      "inputs": [],
      "name": "getRecoveryVault",
      "outputs": [
        {
          "name": "",
          "type": "address"
        }
      ],
      "payable": false,
      "stateMutability": "view",
      "type": "function"
    },
    {
      "constant": false,
      "inputs": [
        {
          "name": "step",
          "type": "uint256"
        }
      ],
      "name": "decrement",
      "outputs": [],
      "payable": false,
      "stateMutability": "nonpayable",
      "type": "function"
    },
    {
      "constant": true,
      "inputs": [],
      "name": "value",
      "outputs": [
        {
          "name": "",
          "type": "uint256"
        }
      ],
      "payable": false,
      "stateMutability": "view",
      "type": "function"
    },
    {
      "constant": true,
      "inputs": [],
      "name": "EVMSCRIPT_REGISTRY_APP_ID",
      "outputs": [
        {
          "name": "",
          "type": "bytes32"
        }
      ],
      "payable": false,
      "stateMutability": "view",
      "type": "function"
    },
    {
      "constant": false,
      "inputs": [
        {
          "name": "step",
          "type": "uint256"
        }
      ],
      "name": "increment",
      "outputs": [],
      "payable": false,
      "stateMutability": "nonpayable",
      "type": "function"
    },
    {
      "constant": true,
      "inputs": [
        {
          "name": "token",
          "type": "address"
        }
      ],
      "name": "allowRecoverability",
      "outputs": [
        {
          "name": "",
          "type": "bool"
        }
      ],
      "payable": false,
      "stateMutability": "view",
      "type": "function"
    },
    {
      "constant": true,
      "inputs": [],
      "name": "appId",
      "outputs": [
        {
          "name": "",
          "type": "bytes32"
        }
      ],
      "payable": false,
      "stateMutability": "view",
      "type": "function"
    },
    {
      "constant": true,
      "inputs": [],
      "name": "ETH",
      "outputs": [
        {
          "name": "",
          "type": "address"
        }
      ],
      "payable": false,
      "stateMutability": "view",
      "type": "function"
    },
    {
      "constant": true,
      "inputs": [],
      "name": "getInitializationBlock",
      "outputs": [
        {
          "name": "",
          "type": "uint256"
        }
      ],
      "payable": false,
      "stateMutability": "view",
      "type": "function"
    },
    {
      "constant": true,
      "inputs": [],
      "name": "EVMSCRIPT_REGISTRY_APP",
      "outputs": [
        {
          "name": "",
          "type": "bytes32"
        }
      ],
      "payable": false,
      "stateMutability": "view",
      "type": "function"
    },
    {
      "constant": false,
      "inputs": [
        {
          "name": "_token",
          "type": "address"
        }
      ],
      "name": "transferToVault",
      "outputs": [],
      "payable": false,
      "stateMutability": "nonpayable",
      "type": "function"
    },
    {
      "constant": true,
      "inputs": [
        {
          "name": "_sender",
          "type": "address"
        },
        {
          "name": "_role",
          "type": "bytes32"
        },
        {
          "name": "params",
          "type": "uint256[]"
        }
      ],
      "name": "canPerform",
      "outputs": [
        {
          "name": "",
          "type": "bool"
        }
      ],
      "payable": false,
      "stateMutability": "view",
      "type": "function"
    },
    {
      "constant": true,
      "inputs": [],
      "name": "kernel",
      "outputs": [
        {
          "name": "",
          "type": "address"
        }
      ],
      "payable": false,
      "stateMutability": "view",
      "type": "function"
    },
    {
      "constant": true,
      "inputs": [],
      "name": "DECREMENT_ROLE",
      "outputs": [
        {
          "name": "",
          "type": "bytes32"
        }
      ],
      "payable": false,
      "stateMutability": "view",
      "type": "function"
    },
    {
      "constant": true,
      "inputs": [
        {
          "name": "_script",
          "type": "bytes"
        }
      ],
      "name": "getExecutor",
      "outputs": [
        {
          "name": "",
          "type": "address"
        }
      ],
      "payable": false,
      "stateMutability": "view",
      "type": "function"
    },
    {
      "anonymous": false,
      "inputs": [
        {
          "indexed": true,
          "name": "entity",
          "type": "address"
        },
        {
          "indexed": false,
          "name": "step",
          "type": "uint256"
        }
      ],
      "name": "Increment",
      "type": "event"
    },
    {
      "anonymous": false,
      "inputs": [
        {
          "indexed": true,
          "name": "entity",
          "type": "address"
        },
        {
          "indexed": false,
          "name": "step",
          "type": "uint256"
        }
      ],
      "name": "Decrement",
      "type": "event"
    }
  ],
  "bytecode": "0x6060604052341561000f57600080fd5b6110628061001e6000396000f3006060604052600436106100f1576000357c0100000000000000000000000000000000000000000000000000000000900463ffffffff168063029bb7e3146100f6578063178e60791461012757806332f0a3b5146101585780633a9ebefd146101ad5780633fa4f245146101d057806360b1e057146101f95780637cf5dab01461022a5780637e7db6e11461024d57806380afdea81461029e5780638322fff2146102cf5780638b3dd749146103245780639b3fdf4c1461034d5780639d4941d81461037e578063a1658fad146103b7578063d4aae0c414610455578063e999688f146104aa578063f92a79ff146104db575b600080fd5b341561010157600080fd5b610109610578565b60405180826000191660001916815260200191505060405180910390f35b341561013257600080fd5b61013a6105b1565b60405180826000191660001916815260200191505060405180910390f35b341561016357600080fd5b61016b6105d8565b604051808273ffffffffffffffffffffffffffffffffffffffff1673ffffffffffffffffffffffffffffffffffffffff16815260200191505060405180910390f35b34156101b857600080fd5b6101ce60048080359060200190919050506106cd565b005b34156101db57600080fd5b6101e36107a5565b6040518082815260200191505060405180910390f35b341561020457600080fd5b61020c6107ab565b60405180826000191660001916815260200191505060405180910390f35b341561023557600080fd5b61024b60048080359060200190919050506107d2565b005b341561025857600080fd5b610284600480803573ffffffffffffffffffffffffffffffffffffffff169060200190919050506108aa565b604051808215151515815260200191505060405180910390f35b34156102a957600080fd5b6102b16108b5565b60405180826000191660001916815260200191505060405180910390f35b34156102da57600080fd5b6102e26108bb565b604051808273ffffffffffffffffffffffffffffffffffffffff1673ffffffffffffffffffffffffffffffffffffffff16815260200191505060405180910390f35b341561032f57600080fd5b6103376108c0565b6040518082815260200191505060405180910390f35b341561035857600080fd5b6103606108ca565b60405180826000191660001916815260200191505060405180910390f35b341561038957600080fd5b6103b5600480803573ffffffffffffffffffffffffffffffffffffffff169060200190919050506108f1565b005b34156103c257600080fd5b61043b600480803573ffffffffffffffffffffffffffffffffffffffff169060200190919080356000191690602001909190803590602001908201803590602001908080602002602001604051908101604052809392919081815260200183836020028082843782019150505050505091905050610b44565b604051808215151515815260200191505060405180910390f35b341561046057600080fd5b610468610d44565b604051808273ffffffffffffffffffffffffffffffffffffffff1673ffffffffffffffffffffffffffffffffffffffff16815260200191505060405180910390f35b34156104b557600080fd5b6104bd610d69565b60405180826000191660001916815260200191505060405180910390f35b34156104e657600080fd5b610536600480803590602001908201803590602001908080601f01602080910402602001604051908101604052809392919081815260200183838082843782019150505050505091905050610da2565b604051808273ffffffffffffffffffffffffffffffffffffffff1673ffffffffffffffffffffffffffffffffffffffff16815260200191505060405180910390f35b60405180807f494e4352454d454e545f524f4c45000000000000000000000000000000000000815250600e019050604051809103902081565b7fd6f028ca0e8edb4a8c9757ca4fdccab25fa1e0317da1188108f7d2dee14902fb60010281565b6000806000809054906101000a900473ffffffffffffffffffffffffffffffffffffffff1673ffffffffffffffffffffffffffffffffffffffff161415151561062057600080fd5b6000809054906101000a900473ffffffffffffffffffffffffffffffffffffffff1673ffffffffffffffffffffffffffffffffffffffff166332f0a3b56000604051602001526040518163ffffffff167c0100000000000000000000000000000000000000000000000000000000028152600401602060405180830381600087803b15156106ad57600080fd5b6102c65a03f115156106be57600080fd5b50505060405180519050905090565b60405180807f44454352454d454e545f524f4c45000000000000000000000000000000000000815250600e019050604051809103902061072d338260006040518059106107175750595b9080825280602002602001820160405250610b44565b151561073857600080fd5b61074d82606454610ea990919063ffffffff16565b6064819055503373ffffffffffffffffffffffffffffffffffffffff167f6b7e3c491cf1853ed43c9cc473d0dbfa8a17d1c836321655f35b48cf00faee03836040518082815260200191505060405180910390a25050565b60645481565b7fddbcfd564f642ab5627cf68b9b7d374fb4f8a36e941a75d89c87998cef03bd6160010281565b60405180807f494e4352454d454e545f524f4c45000000000000000000000000000000000000815250600e01905060405180910390206108323382600060405180591061081c5750595b9080825280602002602001820160405250610b44565b151561083d57600080fd5b61085282606454610ec590919063ffffffff16565b6064819055503373ffffffffffffffffffffffffffffffffffffffff167fb182275171042022ff972a26edbd0171bccc74463bd22e56dbbeba4e93b7a668836040518082815260200191505060405180910390a25050565b600060019050919050565b60015481565b600081565b6000600354905090565b7f34f01c17e9be6ddbf2c61f37b5b1fb9f1a090a975006581ad19bda1c4d38287160010281565b6000806108fd836108aa565b151561090857600080fd5b6109106105d8565b915061091b82610ee6565b151561092657600080fd5b600073ffffffffffffffffffffffffffffffffffffffff168373ffffffffffffffffffffffffffffffffffffffff1614156109b7578173ffffffffffffffffffffffffffffffffffffffff166108fc3073ffffffffffffffffffffffffffffffffffffffff16319081150290604051600060405180830381858888f1935050505015156109b257600080fd5b610b3f565b8273ffffffffffffffffffffffffffffffffffffffff166370a08231306000604051602001526040518263ffffffff167c0100000000000000000000000000000000000000000000000000000000028152600401808273ffffffffffffffffffffffffffffffffffffffff1673ffffffffffffffffffffffffffffffffffffffff168152602001915050602060405180830381600087803b1515610a5a57600080fd5b6102c65a03f11515610a6b57600080fd5b5050506040518051905090508273ffffffffffffffffffffffffffffffffffffffff1663a9059cbb83836000604051602001526040518363ffffffff167c0100000000000000000000000000000000000000000000000000000000028152600401808373ffffffffffffffffffffffffffffffffffffffff1673ffffffffffffffffffffffffffffffffffffffff16815260200182815260200192505050602060405180830381600087803b1515610b2257600080fd5b6102c65a03f11515610b3357600080fd5b50505060405180519050505b505050565b6000610b4e611022565b60008084511115610b6757602084510290508391508082525b60008060009054906101000a900473ffffffffffffffffffffffffffffffffffffffff1673ffffffffffffffffffffffffffffffffffffffff161480610d3957506000809054906101000a900473ffffffffffffffffffffffffffffffffffffffff1673ffffffffffffffffffffffffffffffffffffffff1663fdef9106873088866000604051602001526040518563ffffffff167c0100000000000000000000000000000000000000000000000000000000028152600401808573ffffffffffffffffffffffffffffffffffffffff1673ffffffffffffffffffffffffffffffffffffffff1681526020018473ffffffffffffffffffffffffffffffffffffffff1673ffffffffffffffffffffffffffffffffffffffff168152602001836000191660001916815260200180602001828103825283818151815260200191508051906020019080838360005b83811015610ccf578082015181840152602081019050610cb4565b50505050905090810190601f168015610cfc5780820380516001836020036101000a031916815260200191505b5095505050505050602060405180830381600087803b1515610d1d57600080fd5b6102c65a03f11515610d2e57600080fd5b505050604051805190505b925050509392505050565b6000809054906101000a900473ffffffffffffffffffffffffffffffffffffffff1681565b60405180807f44454352454d454e545f524f4c45000000000000000000000000000000000000815250600e019050604051809103902081565b6000610dac610f38565b73ffffffffffffffffffffffffffffffffffffffff166304bf2a7f836000604051602001526040518263ffffffff167c01000000000000000000000000000000000000000000000000000000000281526004018080602001828103825283818151815260200191508051906020019080838360005b83811015610e3c578082015181840152602081019050610e21565b50505050905090810190601f168015610e695780820380516001836020036101000a031916815260200191505b5092505050602060405180830381600087803b1515610e8757600080fd5b6102c65a03f11515610e9857600080fd5b505050604051805190509050919050565b6000828211151515610eba57600080fd5b818303905092915050565b6000808284019050838110151515610edc57600080fd5b8091505092915050565b600080600073ffffffffffffffffffffffffffffffffffffffff168373ffffffffffffffffffffffffffffffffffffffff161415610f275760009150610f32565b823b90506000811191505b50919050565b6000806000809054906101000a900473ffffffffffffffffffffffffffffffffffffffff1673ffffffffffffffffffffffffffffffffffffffff166342c71f1d7f34f01c17e9be6ddbf2c61f37b5b1fb9f1a090a975006581ad19bda1c4d3828716001026000604051602001526040518263ffffffff167c0100000000000000000000000000000000000000000000000000000000028152600401808260001916600019168152602001915050602060405180830381600087803b1515610ffe57600080fd5b6102c65a03f1151561100f57600080fd5b5050506040518051905090508091505090565b6020604051908101604052806000815250905600a165627a7a7230582024fa9573ed3b9264e21952bc724316de51d51dccde560caf7eb2c70f357838920029",
  "source": "pragma solidity ^0.4.4;\n\nimport \"@aragon/os/contracts/apps/AragonApp.sol\";\nimport \"@aragon/os/contracts/lib/zeppelin/math/SafeMath.sol\";\n\ncontract CounterApp is AragonApp {\n    using SafeMath for uint256;\n\n    /// Events\n    event Increment(address indexed entity, uint256 step);\n    event Decrement(address indexed entity, uint256 step);\n\n    /// State\n    uint256 public value;\n\n    /// ACL\n    bytes32 constant public INCREMENT_ROLE = keccak256(\"INCREMENT_ROLE\");\n    bytes32 constant public DECREMENT_ROLE = keccak256(\"DECREMENT_ROLE\");\n\n    /**\n     * @notice Increment the counter by `step`\n     * @param step Amount to increment by\n     */\n    function increment(uint256 step) auth(INCREMENT_ROLE) external {\n        value = value.add(step);\n        Increment(msg.sender, step);\n    }\n\n    /**\n     * @notice Decrement the counter by `step`\n     * @param step Amount to decrement by\n     */\n    function decrement(uint256 step) auth(DECREMENT_ROLE) external {\n        value = value.sub(step);\n        Decrement(msg.sender, step);\n    }\n}\n",
  "sourcePath": "/Users/arpit/projects/foo/contracts/CounterApp.sol",
  "compiler": {
    "name": "solc",
    "version": "0.4.18+commit.9cf6e910.Emscripten.clang"
  },
  "schemaVersion": "1.0.1",
  "updatedAt": "2018-08-12T06:30:50.857Z"
}