{
  "contractName": "InvoiceApp",
  "abi": [
    {
      "constant": true,
      "inputs": [],
      "name": "INCREMENT_ROLE",
      "outputs": [
        {
          "name": "",
          "type": "bytes32"
        }
      ],
      "payable": false,
      "stateMutability": "view",
      "type": "function"
    },
    {
      "constant": true,
      "inputs": [],
      "name": "APP_ADDR_NAMESPACE",
      "outputs": [
        {
          "name": "",
          "type": "bytes32"
        }
      ],
      "payable": false,
      "stateMutability": "view",
      "type": "function"
    },
    {
      "constant": false,
      "inputs": [
        {
          "name": "payer",
          "type": "string"
        },
        {
          "name": "amount",
          "type": "uint256"
        }
      ],
      "name": "createPaymentRequest",
      "outputs": [],
      "payable": false,
      "stateMutability": "nonpayable",
      "type": "function"
    },
    {
      "constant": true,
      "inputs": [],
      "name": "getRecoveryVault",
      "outputs": [
        {
          "name": "",
          "type": "address"
        }
      ],
      "payable": false,
      "stateMutability": "view",
      "type": "function"
    },
    {
      "constant": false,
      "inputs": [
        {
          "name": "step",
          "type": "uint256"
        }
      ],
      "name": "decrement",
      "outputs": [],
      "payable": false,
      "stateMutability": "nonpayable",
      "type": "function"
    },
    {
      "constant": true,
      "inputs": [],
      "name": "value",
      "outputs": [
        {
          "name": "",
          "type": "uint256"
        }
      ],
      "payable": false,
      "stateMutability": "view",
      "type": "function"
    },
    {
      "constant": true,
      "inputs": [
        {
          "name": "",
          "type": "uint256"
        }
      ],
      "name": "status",
      "outputs": [
        {
          "name": "requestId",
          "type": "bytes32"
        },
        {
          "name": "state",
          "type": "uint8"
        }
      ],
      "payable": false,
      "stateMutability": "view",
      "type": "function"
    },
    {
      "constant": false,
      "inputs": [],
      "name": "dummyEvent",
      "outputs": [],
      "payable": false,
      "stateMutability": "nonpayable",
      "type": "function"
    },
    {
      "constant": true,
      "inputs": [],
      "name": "EVMSCRIPT_REGISTRY_APP_ID",
      "outputs": [
        {
          "name": "",
          "type": "bytes32"
        }
      ],
      "payable": false,
      "stateMutability": "view",
      "type": "function"
    },
    {
      "constant": false,
      "inputs": [
        {
          "name": "step",
          "type": "uint256"
        }
      ],
      "name": "increment",
      "outputs": [],
      "payable": false,
      "stateMutability": "nonpayable",
      "type": "function"
    },
    {
      "constant": true,
      "inputs": [
        {
          "name": "token",
          "type": "address"
        }
      ],
      "name": "allowRecoverability",
      "outputs": [
        {
          "name": "",
          "type": "bool"
        }
      ],
      "payable": false,
      "stateMutability": "view",
      "type": "function"
    },
    {
      "constant": true,
      "inputs": [],
      "name": "appId",
      "outputs": [
        {
          "name": "",
          "type": "bytes32"
        }
      ],
      "payable": false,
      "stateMutability": "view",
      "type": "function"
    },
    {
      "constant": true,
      "inputs": [],
      "name": "ETH",
      "outputs": [
        {
          "name": "",
          "type": "address"
        }
      ],
      "payable": false,
      "stateMutability": "view",
      "type": "function"
    },
    {
      "constant": true,
      "inputs": [],
      "name": "getInitializationBlock",
      "outputs": [
        {
          "name": "",
          "type": "uint256"
        }
      ],
      "payable": false,
      "stateMutability": "view",
      "type": "function"
    },
    {
      "constant": true,
      "inputs": [],
      "name": "EVMSCRIPT_REGISTRY_APP",
      "outputs": [
        {
          "name": "",
          "type": "bytes32"
        }
      ],
      "payable": false,
      "stateMutability": "view",
      "type": "function"
    },
    {
      "constant": false,
      "inputs": [
        {
          "name": "_token",
          "type": "address"
        }
      ],
      "name": "transferToVault",
      "outputs": [],
      "payable": false,
      "stateMutability": "nonpayable",
      "type": "function"
    },
    {
      "constant": true,
      "inputs": [
        {
          "name": "_sender",
          "type": "address"
        },
        {
          "name": "_role",
          "type": "bytes32"
        },
        {
          "name": "params",
          "type": "uint256[]"
        }
      ],
      "name": "canPerform",
      "outputs": [
        {
          "name": "",
          "type": "bool"
        }
      ],
      "payable": false,
      "stateMutability": "view",
      "type": "function"
    },
    {
      "constant": true,
      "inputs": [],
      "name": "id",
      "outputs": [
        {
          "name": "",
          "type": "uint256"
        }
      ],
      "payable": false,
      "stateMutability": "view",
      "type": "function"
    },
    {
      "constant": false,
      "inputs": [
        {
          "name": "_requestId",
          "type": "bytes32"
        }
      ],
      "name": "paymentFulfilled",
      "outputs": [],
      "payable": false,
      "stateMutability": "nonpayable",
      "type": "function"
    },
    {
      "constant": true,
      "inputs": [],
      "name": "kernel",
      "outputs": [
        {
          "name": "",
          "type": "address"
        }
      ],
      "payable": false,
      "stateMutability": "view",
      "type": "function"
    },
    {
      "constant": false,
      "inputs": [
        {
          "name": "id",
          "type": "uint256"
        },
        {
          "name": "_requestId",
          "type": "bytes32"
        }
      ],
      "name": "setRequestId",
      "outputs": [],
      "payable": false,
      "stateMutability": "nonpayable",
      "type": "function"
    },
    {
      "constant": true,
      "inputs": [],
      "name": "DECREMENT_ROLE",
      "outputs": [
        {
          "name": "",
          "type": "bytes32"
        }
      ],
      "payable": false,
      "stateMutability": "view",
      "type": "function"
    },
    {
      "constant": false,
      "inputs": [],
      "name": "refresh",
      "outputs": [],
      "payable": false,
      "stateMutability": "nonpayable",
      "type": "function"
    },
    {
      "constant": true,
      "inputs": [
        {
          "name": "_script",
          "type": "bytes"
        }
      ],
      "name": "getExecutor",
      "outputs": [
        {
          "name": "",
          "type": "address"
        }
      ],
      "payable": false,
      "stateMutability": "view",
      "type": "function"
    },
    {
      "anonymous": false,
      "inputs": [
        {
          "indexed": true,
          "name": "entity",
          "type": "address"
        },
        {
          "indexed": false,
          "name": "step",
          "type": "uint256"
        }
      ],
      "name": "Increment",
      "type": "event"
    },
    {
      "anonymous": false,
      "inputs": [
        {
          "indexed": false,
          "name": "step",
          "type": "uint256"
        }
      ],
      "name": "Decrement",
      "type": "event"
    },
    {
      "anonymous": false,
      "inputs": [
        {
          "indexed": false,
          "name": "id",
          "type": "uint256"
        },
        {
          "indexed": false,
          "name": "payer",
          "type": "string"
        },
        {
          "indexed": false,
          "name": "amount",
          "type": "uint256"
        }
      ],
      "name": "CreatePaymentRequest",
      "type": "event"
    },
    {
      "anonymous": false,
      "inputs": [
        {
          "indexed": false,
          "name": "id",
          "type": "uint256"
        },
        {
          "indexed": false,
          "name": "payer",
          "type": "string"
        },
        {
          "indexed": false,
          "name": "amount",
          "type": "uint256"
        }
      ],
      "name": "CreatePaymentRequestBackend",
      "type": "event"
    },
    {
      "anonymous": false,
      "inputs": [
        {
          "indexed": false,
          "name": "requestId",
          "type": "bytes32"
        }
      ],
      "name": "PaymentCreated",
      "type": "event"
    },
    {
      "anonymous": false,
      "inputs": [
        {
          "indexed": false,
          "name": "requestId",
          "type": "bytes32"
        }
      ],
      "name": "PaymentFulfilled",
      "type": "event"
    },
    {
      "anonymous": false,
      "inputs": [],
      "name": "DummyEvent",
      "type": "event"
    },
    {
      "anonymous": false,
      "inputs": [
        {
          "indexed": false,
          "name": "payments",
          "type": "uint256[]"
        }
      ],
      "name": "FulfilledPayments",
      "type": "event"
    }
  ],
  "bytecode": "0x6060604052341561000f57600080fd5b6115168061001e6000396000f30060606040526004361061013e576000357c0100000000000000000000000000000000000000000000000000000000900463ffffffff168063029bb7e314610143578063178e607914610174578063316a29fc146101a557806332f0a3b5146101dc5780633a9ebefd146102315780633fa4f2451461025457806342d21ef71461027d5780634b2c2e4b146102d157806360b1e057146102e65780637cf5dab0146103175780637e7db6e11461033a57806380afdea81461038b5780638322fff2146103bc5780638b3dd749146104115780639b3fdf4c1461043a5780639d4941d81461046b578063a1658fad146104a4578063af640d0f14610542578063d1138fa11461056b578063d4aae0c414610592578063e7137da8146105e7578063e999688f14610617578063f8ac93e814610648578063f92a79ff1461065d575b600080fd5b341561014e57600080fd5b6101566106fa565b60405180826000191660001916815260200191505060405180910390f35b341561017f57600080fd5b610187610733565b60405180826000191660001916815260200191505060405180910390f35b34156101b057600080fd5b6101da6004808035906020019082018035906020019190919290803590602001909190505061075a565b005b34156101e757600080fd5b6101ef610833565b604051808273ffffffffffffffffffffffffffffffffffffffff1673ffffffffffffffffffffffffffffffffffffffff16815260200191505060405180910390f35b341561023c57600080fd5b6102526004808035906020019091905050610928565b005b341561025f57600080fd5b61026761097d565b6040518082815260200191505060405180910390f35b341561028857600080fd5b61029e6004808035906020019091905050610983565b6040518083600019166000191681526020018260028111156102bc57fe5b60ff1681526020019250505060405180910390f35b34156102dc57600080fd5b6102e46109b4565b005b34156102f157600080fd5b6102f96109e2565b60405180826000191660001916815260200191505060405180910390f35b341561032257600080fd5b6103386004808035906020019091905050610a09565b005b341561034557600080fd5b610371600480803573ffffffffffffffffffffffffffffffffffffffff16906020019091905050610ae1565b604051808215151515815260200191505060405180910390f35b341561039657600080fd5b61039e610aec565b60405180826000191660001916815260200191505060405180910390f35b34156103c757600080fd5b6103cf610af2565b604051808273ffffffffffffffffffffffffffffffffffffffff1673ffffffffffffffffffffffffffffffffffffffff16815260200191505060405180910390f35b341561041c57600080fd5b610424610af7565b6040518082815260200191505060405180910390f35b341561044557600080fd5b61044d610b01565b60405180826000191660001916815260200191505060405180910390f35b341561047657600080fd5b6104a2600480803573ffffffffffffffffffffffffffffffffffffffff16906020019091905050610b28565b005b34156104af57600080fd5b610528600480803573ffffffffffffffffffffffffffffffffffffffff169060200190919080356000191690602001909190803590602001908201803590602001908080602002602001604051908101604052809392919081815260200183836020028082843782019150505050505091905050610d7b565b604051808215151515815260200191505060405180910390f35b341561054d57600080fd5b610555610f7b565b6040518082815260200191505060405180910390f35b341561057657600080fd5b610590600480803560001916906020019091905050610f81565b005b341561059d57600080fd5b6105a5611040565b604051808273ffffffffffffffffffffffffffffffffffffffff1673ffffffffffffffffffffffffffffffffffffffff16815260200191505060405180910390f35b34156105f257600080fd5b610615600480803590602001909190803560001916906020019091905050611065565b005b341561062257600080fd5b61062a6110ff565b60405180826000191660001916815260200191505060405180910390f35b341561065357600080fd5b61065b611138565b005b341561066857600080fd5b6106b8600480803590602001908201803590602001908080601f0160208091040260200160405190810160405280939291908181526020018383808284378201915050505050509190505061125e565b604051808273ffffffffffffffffffffffffffffffffffffffff1673ffffffffffffffffffffffffffffffffffffffff16815260200191505060405180910390f35b60405180807f494e4352454d454e545f524f4c45000000000000000000000000000000000000815250600e019050604051809103902081565b7fd6f028ca0e8edb4a8c9757ca4fdccab25fa1e0317da1188108f7d2dee14902fb60010281565b7f94251f5db49648a322cfcb1f905c24b54a922cb4c74c286c563516c9053070d16066548484846040518085815260200180602001838152602001828103825285858281815260200192508082843782019150509550505050505060405180910390a17f9c3098f4f921bc165f404009ccc256732518cd767e87d9b66cc883551f9dbf1860666000815480929190600101919050558484846040518085815260200180602001838152602001828103825285858281815260200192508082843782019150509550505050505060405180910390a1505050565b6000806000809054906101000a900473ffffffffffffffffffffffffffffffffffffffff1673ffffffffffffffffffffffffffffffffffffffff161415151561087b57600080fd5b6000809054906101000a900473ffffffffffffffffffffffffffffffffffffffff1673ffffffffffffffffffffffffffffffffffffffff166332f0a3b56000604051602001526040518163ffffffff167c0100000000000000000000000000000000000000000000000000000000028152600401602060405180830381600087803b151561090857600080fd5b6102c65a03f1151561091957600080fd5b50505060405180519050905090565b61093d8160655461136590919063ffffffff16565b6065819055507f32814a5bdfd1b8c3d76c49c54e043d6e8aa93d197a09e16599b567135503f748816040518082815260200191505060405180910390a150565b60655481565b60646020528060005260406000206000915090508060000154908060010160009054906101000a900460ff16905082565b7f321d83059d08b108790a2ca1fd77d843211cdfff5dc3b5d7fb4574be368d449760405160405180910390a1565b7fddbcfd564f642ab5627cf68b9b7d374fb4f8a36e941a75d89c87998cef03bd6160010281565b60405180807f494e4352454d454e545f524f4c45000000000000000000000000000000000000815250600e0190506040518091039020610a6933826000604051805910610a535750595b9080825280602002602001820160405250610d7b565b1515610a7457600080fd5b610a898260655461136590919063ffffffff16565b6065819055503373ffffffffffffffffffffffffffffffffffffffff167fb182275171042022ff972a26edbd0171bccc74463bd22e56dbbeba4e93b7a668836040518082815260200191505060405180910390a25050565b600060019050919050565b60015481565b600081565b6000600354905090565b7f34f01c17e9be6ddbf2c61f37b5b1fb9f1a090a975006581ad19bda1c4d38287160010281565b600080610b3483610ae1565b1515610b3f57600080fd5b610b47610833565b9150610b5282611386565b1515610b5d57600080fd5b600073ffffffffffffffffffffffffffffffffffffffff168373ffffffffffffffffffffffffffffffffffffffff161415610bee578173ffffffffffffffffffffffffffffffffffffffff166108fc3073ffffffffffffffffffffffffffffffffffffffff16319081150290604051600060405180830381858888f193505050501515610be957600080fd5b610d76565b8273ffffffffffffffffffffffffffffffffffffffff166370a08231306000604051602001526040518263ffffffff167c0100000000000000000000000000000000000000000000000000000000028152600401808273ffffffffffffffffffffffffffffffffffffffff1673ffffffffffffffffffffffffffffffffffffffff168152602001915050602060405180830381600087803b1515610c9157600080fd5b6102c65a03f11515610ca257600080fd5b5050506040518051905090508273ffffffffffffffffffffffffffffffffffffffff1663a9059cbb83836000604051602001526040518363ffffffff167c0100000000000000000000000000000000000000000000000000000000028152600401808373ffffffffffffffffffffffffffffffffffffffff1673ffffffffffffffffffffffffffffffffffffffff16815260200182815260200192505050602060405180830381600087803b1515610d5957600080fd5b6102c65a03f11515610d6a57600080fd5b50505060405180519050505b505050565b6000610d856114c2565b60008084511115610d9e57602084510290508391508082525b60008060009054906101000a900473ffffffffffffffffffffffffffffffffffffffff1673ffffffffffffffffffffffffffffffffffffffff161480610f7057506000809054906101000a900473ffffffffffffffffffffffffffffffffffffffff1673ffffffffffffffffffffffffffffffffffffffff1663fdef9106873088866000604051602001526040518563ffffffff167c0100000000000000000000000000000000000000000000000000000000028152600401808573ffffffffffffffffffffffffffffffffffffffff1673ffffffffffffffffffffffffffffffffffffffff1681526020018473ffffffffffffffffffffffffffffffffffffffff1673ffffffffffffffffffffffffffffffffffffffff168152602001836000191660001916815260200180602001828103825283818151815260200191508051906020019080838360005b83811015610f06578082015181840152602081019050610eeb565b50505050905090810190601f168015610f335780820380516001836020036101000a031916815260200191505b5095505050505050602060405180830381600087803b1515610f5457600080fd5b6102c65a03f11515610f6557600080fd5b505050604051805190505b925050509392505050565b60665481565b60008090505b606654811015610ffd5781600019166064600083815260200190815260200160002060000154600019161415610ff05760016064600083815260200190815260200160002060010160006101000a81548160ff02191690836002811115610fea57fe5b02179055505b8080600101915050610f87565b7f1a353683a28715629a831c24798028481eb73af104bc8d2c2f5407f470fa83768260405180826000191660001916815260200191505060405180910390a15050565b6000809054906101000a900473ffffffffffffffffffffffffffffffffffffffff1681565b8060646000848152602001908152602001600020600001816000191690555060006064600084815260200190815260200160002060010160006101000a81548160ff021916908360028111156110b757fe5b02179055507fc61f43d580c7bdac3fb7dbb43ddf1135629cc850a2618660c7f3d6bd10b92cbc8160405180826000191660001916815260200191505060405180910390a15050565b60405180807f44454352454d454e545f524f4c45000000000000000000000000000000000000815250600e019050604051809103902081565b6111406114d6565b60006066546040518059106111525750595b90808252806020026020018201604052509150600090505b6066548110156111e2576001600281111561118157fe5b6064600083815260200190815260200160002060010160009054906101000a900460ff1660028111156111b057fe5b14156111d557600182828151811015156111c657fe5b90602001906020020181815250505b808060010191505061116a565b7fb78cafd02ccb443ab07fd1780ffaf95a3d2416fc0fec24b71c0aaea4c0741d38826040518080602001828103825283818151815260200191508051906020019060200280838360005b8381101561124757808201518184015260208101905061122c565b505050509050019250505060405180910390a15050565b60006112686113d8565b73ffffffffffffffffffffffffffffffffffffffff166304bf2a7f836000604051602001526040518263ffffffff167c01000000000000000000000000000000000000000000000000000000000281526004018080602001828103825283818151815260200191508051906020019080838360005b838110156112f85780820151818401526020810190506112dd565b50505050905090810190601f1680156113255780820380516001836020036101000a031916815260200191505b5092505050602060405180830381600087803b151561134357600080fd5b6102c65a03f1151561135457600080fd5b505050604051805190509050919050565b600080828401905083811015151561137c57600080fd5b8091505092915050565b600080600073ffffffffffffffffffffffffffffffffffffffff168373ffffffffffffffffffffffffffffffffffffffff1614156113c757600091506113d2565b823b90506000811191505b50919050565b6000806000809054906101000a900473ffffffffffffffffffffffffffffffffffffffff1673ffffffffffffffffffffffffffffffffffffffff166342c71f1d7f34f01c17e9be6ddbf2c61f37b5b1fb9f1a090a975006581ad19bda1c4d3828716001026000604051602001526040518263ffffffff167c0100000000000000000000000000000000000000000000000000000000028152600401808260001916600019168152602001915050602060405180830381600087803b151561149e57600080fd5b6102c65a03f115156114af57600080fd5b5050506040518051905090508091505090565b602060405190810160405280600081525090565b6020604051908101604052806000815250905600a165627a7a72305820c458ddf0397620b01456fe3102bdccbe26dd1108fc0a6a289d728c0f04181c290029",
  "source": "pragma solidity ^0.4.4;\n\nimport \"@aragon/os/contracts/apps/AragonApp.sol\";\nimport \"@aragon/os/contracts/lib/zeppelin/math/SafeMath.sol\";\n\ncontract InvoiceApp is AragonApp {\n    using SafeMath for uint256;\n\n    /// Events\n    event Increment(address indexed entity, uint256 step);\n    event Decrement(uint256 step);\n    event CreatePaymentRequest(uint256 id, string payer, uint256 amount);\n    event CreatePaymentRequestBackend(uint256 id, string payer, uint256 amount);\n    event PaymentCreated(bytes32 requestId);\n    event PaymentFulfilled(bytes32 requestId);\n    event DummyEvent();\n    event FulfilledPayments(uint256[] payments);\n\n    enum State { Created, Fulfilled, Canceled }\n\n    struct Details {\n      bytes32 requestId;\n      State state;\n    }\n\n    mapping(uint256 => Details) public status;\n    /// State\n    uint256 public value;\n    uint256 public id;\n\n    /// ACL\n    bytes32 constant public INCREMENT_ROLE = keccak256(\"INCREMENT_ROLE\");\n    bytes32 constant public DECREMENT_ROLE = keccak256(\"DECREMENT_ROLE\");\n\n    /**\n     * @notice Increment the counter by `step`\n     * @param step Amount to increment by\n     */\n    function increment(uint256 step) auth(INCREMENT_ROLE) external {\n        value = value.add(step);\n        Increment(msg.sender, step);\n    }\n\n    function dummyEvent() public {\n      DummyEvent();\n    }\n\n    /**\n     * @notice Create Payment Request of `amount` for `payer`\n     * @param payer payer\n     */\n    function createPaymentRequest(string payer, uint256 amount) external {\n      CreatePaymentRequest(id, payer, amount);\n      CreatePaymentRequestBackend(id++, payer, amount);\n      // Increment(msg.sender, 1);\n    }\n\n    function setRequestId(uint256 id, bytes32 _requestId) external {\n      status[id].requestId = _requestId;\n      status[id].state = State.Created;\n      PaymentCreated(_requestId);\n    }\n\n    function refresh() public {\n      uint256[] memory fulfilledPayments = new uint256[](id);\n      for (uint i = 0; i < id; i++) {\n        if (status[i].state == State.Fulfilled) {\n          fulfilledPayments[i] = 1;\n        }\n      }\n      FulfilledPayments(fulfilledPayments);\n    }\n\n    function paymentFulfilled(bytes32 _requestId) external {\n      for (uint i = 0; i < id; i++) {\n        if (status[i].requestId == _requestId) {\n          status[i].state = State.Fulfilled;\n        }\n      }\n      PaymentFulfilled(_requestId);\n    }\n\n    /**\n     * @notice Decrement the counter by `step`\n     * @param step Amount to decrement by\n     */\n    function decrement(uint256 step) external {\n        value = value.add(step);\n        Decrement(step);\n    }\n}\n",
  "sourcePath": "/Users/arpit/projects/foo/contracts/InvoiceApp.sol",
  "compiler": {
    "name": "solc",
    "version": "0.4.18+commit.9cf6e910.Emscripten.clang"
  },
  "schemaVersion": "1.0.1",
  "updatedAt": "2018-08-12T07:45:05.417Z"
}